{
  "contractName": "PostBoard",
  "abi": [
    {
      "inputs": [],
      "payable": false,
      "stateMutability": "nonpayable",
      "type": "constructor"
    },
    {
      "constant": true,
      "inputs": [
        {
          "internalType": "uint256",
          "name": "",
          "type": "uint256"
        }
      ],
      "name": "posts",
      "outputs": [
        {
          "internalType": "uint256",
          "name": "uuid",
          "type": "uint256"
        },
        {
          "internalType": "string",
          "name": "content",
          "type": "string"
        }
      ],
      "payable": false,
      "stateMutability": "view",
      "type": "function"
    },
    {
      "constant": true,
      "inputs": [
        {
          "internalType": "uint256",
          "name": "",
          "type": "uint256"
        }
      ],
      "name": "postsEndTime",
      "outputs": [
        {
          "internalType": "uint256",
          "name": "",
          "type": "uint256"
        }
      ],
      "payable": false,
      "stateMutability": "view",
      "type": "function"
    },
    {
      "constant": false,
      "inputs": [
        {
          "internalType": "uint256",
          "name": "_endTime",
          "type": "uint256"
        },
        {
          "internalType": "string",
          "name": "_content",
          "type": "string"
        }
      ],
      "name": "createPost",
      "outputs": [],
      "payable": false,
      "stateMutability": "nonpayable",
      "type": "function"
    },
    {
      "constant": true,
      "inputs": [],
      "name": "getArray",
      "outputs": [
        {
          "internalType": "uint256[]",
          "name": "",
          "type": "uint256[]"
        }
      ],
      "payable": false,
      "stateMutability": "view",
      "type": "function"
    }
  ],
  "bytecode": "0x6080604052601060005534801561001557600080fd5b50610044600b6040518060400160405280600581526020016462696e676f60d81b81525061004960201b60201c565b610248565b600060018060405180604001604052806100688661012460201b60201c565b8152602090810186905282546001818101808655600095865294839020845160029093020191825583830151805192936100a893928501929101906101ad565b5050600280546001808201909255620151809790970242017f405787fa12a823e0f2b7631cc41b3ba8828b3321ca811111fa75cd3aa3bb5ace90970196909655500360009081526003602090815260408083208054336001600160a01b0319909116811790915583526004909152902080549093019092555050565b600080826040516020018082805190602001908083835b6020831061015a5780518252601f19909201916020918201910161013b565b6001836020036101000a0380198251168184511680821785525050505050509050019150506040516020818303038152906040528051906020012060001c905060005481816101a557fe5b069392505050565b828054600181600116156101000203166002900490600052602060002090601f016020900481019282601f106101ee57805160ff191683800117855561021b565b8280016001018555821561021b579182015b8281111561021b578251825591602001919060010190610200565b5061022792915061022b565b5090565b61024591905b808211156102275760008155600101610231565b90565b61057a806102576000396000f3fe608060405234801561001057600080fd5b506004361061004c5760003560e01c80630b1e7f83146100515780638ecba316146100ed578063a9ca3a4c1461011c578063d504ea1d146101cb575b600080fd5b61006e6004803603602081101561006757600080fd5b5035610223565b6040518083815260200180602001828103825283818151815260200191508051906020019080838360005b838110156100b1578181015183820152602001610099565b50505050905090810190601f1680156100de5780820380516001836020036101000a031916815260200191505b50935050505060405180910390f35b61010a6004803603602081101561010357600080fd5b50356102d8565b60408051918252519081900360200190f35b6101c96004803603604081101561013257600080fd5b8135919081019060408101602082013564010000000081111561015457600080fd5b82018360208201111561016657600080fd5b8035906020019184600183028401116401000000008311171561018857600080fd5b91908080601f0160208091040260200160405190810160405280939291908181526020018383808284376000920191909152509295506102f6945050505050565b005b6101d36103cb565b60408051602080825283518183015283519192839290830191858101910280838360005b8381101561020f5781810151838201526020016101f7565b505050509050019250505060405180910390f35b6001818154811061023057fe5b60009182526020918290206002918202018054600180830180546040805193821615610100026000190190911695909504601f81018790048702830187019095528482529195509193919290918301828280156102ce5780601f106102a3576101008083540402835291602001916102ce565b820191906000526020600020905b8154815290600101906020018083116102b157829003601f168201915b5050505050905082565b600281815481106102e557fe5b600091825260209091200154905081565b6000600180604051806040016040528061030f86610424565b81526020908101869052825460018181018086556000958652948390208451600290930201918255838301518051929361034f93928501929101906104ad565b5050600280546001808201909255620151809790970242017f405787fa12a823e0f2b7631cc41b3ba8828b3321ca811111fa75cd3aa3bb5ace90970196909655500360009081526003602090815260408083208054336001600160a01b0319909116811790915583526004909152902080549093019092555050565b6060600280548060200260200160405190810160405280929190818152602001828054801561041957602002820191906000526020600020905b815481526020019060010190808311610405575b505050505090505b90565b600080826040516020018082805190602001908083835b6020831061045a5780518252601f19909201916020918201910161043b565b6001836020036101000a0380198251168184511680821785525050505050509050019150506040516020818303038152906040528051906020012060001c905060005481816104a557fe5b069392505050565b828054600181600116156101000203166002900490600052602060002090601f016020900481019282601f106104ee57805160ff191683800117855561051b565b8280016001018555821561051b579182015b8281111561051b578251825591602001919060010190610500565b5061052792915061052b565b5090565b61042191905b80821115610527576000815560010161053156fea265627a7a723158203f514ea30906399a127885d0079baf6d373c39afd38e0fbbbc3aa541ebc007ef64736f6c63430005100032",
  "source": "pragma solidity ^0.5.0;\ncontract  PostBoard{\n\n\n  uint randMod = 16;      // uuid\n\n  struct Post{\n    uint uuid;\n    //    uint endTime;  // in days             epoch time\n    /* uint isDeprecated; */\n    string content;\n  }\n\n  Post[] public posts;\n  uint[] public postsEndTime;  // indexed by post id\n  mapping(uint => address) postToOwner;\n  mapping(address => uint) ownerPostCount;\n\n  constructor() public {\n    createPost(11,\"bingo\");\n  }\n\n  function createPost(uint _endTime, string memory _content) public{\n\n    uint _postId = posts.push( Post( _generateUUID(_content), _content) ) - 1 ;\n    postsEndTime.push(uint(now + (_endTime*86400)));\n    postToOwner[_postId] = msg.sender;\n    ownerPostCount[msg.sender]++;\n  }\n\n  function getArray() public view returns(uint[] memory){\n    return postsEndTime;\n  }\n\n  //_generateUUID returns randMod digits random num;\n  function _generateUUID(string memory _str) private view returns(uint) {\n    uint rand = uint(keccak256(abi.encodePacked(_str)));\n    return  rand % randMod;\n  }\n\n  //deprecator   since delete is\n  function deprecateExpiredPost(uint _postId) private{\n    // automatic post deprecation\n    //\n  }\n\n  //time can only be extended further\n  //will create a new post with the same post id ?\n  /* // how?\n  function updateTime(uint _newEndTime, uint _postId){\n  require(posts[_postId].endTime > now);     // post cannot be update after end time\n\n  } */\n\n  modifier onlyOwnerOf(uint _postId){\n    require(msg.sender == postToOwner[_postId]);\n    _;\n  }\n\n  /* function setGreet(string memory _greet) public{\n  greet = _greet;\n}\n\nfunction getGreet() public view returns(string memory) {\nreturn greet;\n} */\n\n}\n",
  "sourcePath": "/home/waverune/devLab/deployed/eth-todo-list/contracts/PostBoard.sol",
  "compiler": {
    "name": "solc",
    "version": "0.5.16+commit.9c3226ce.Emscripten.clang"
  },
  "schemaVersion": "3.4.1",
  "updatedAt": "2021-07-08T10:07:21.441Z",
  "networkType": "ethereum",
  "devdoc": {
    "methods": {}
  },
  "userdoc": {
    "methods": {}
  }
}