{
  "contractName": "PostBoard",
  "abi": [
    {
      "inputs": [],
      "stateMutability": "nonpayable",
      "type": "constructor"
    },
    {
      "anonymous": false,
      "inputs": [
        {
          "indexed": true,
          "internalType": "address",
          "name": "previousOwner",
          "type": "address"
        },
        {
          "indexed": true,
          "internalType": "address",
          "name": "newOwner",
          "type": "address"
        }
      ],
      "name": "OwnershipTransferred",
      "type": "event"
    },
    {
      "inputs": [],
      "name": "owner",
      "outputs": [
        {
          "internalType": "address",
          "name": "",
          "type": "address"
        }
      ],
      "stateMutability": "view",
      "type": "function"
    },
    {
      "inputs": [
        {
          "internalType": "uint256",
          "name": "",
          "type": "uint256"
        }
      ],
      "name": "posts",
      "outputs": [
        {
          "internalType": "uint256",
          "name": "uuid",
          "type": "uint256"
        },
        {
          "internalType": "string",
          "name": "content",
          "type": "string"
        }
      ],
      "stateMutability": "view",
      "type": "function"
    },
    {
      "inputs": [
        {
          "internalType": "uint256",
          "name": "",
          "type": "uint256"
        }
      ],
      "name": "postsEndTime",
      "outputs": [
        {
          "internalType": "uint256",
          "name": "",
          "type": "uint256"
        }
      ],
      "stateMutability": "view",
      "type": "function"
    },
    {
      "inputs": [],
      "name": "renounceOwnership",
      "outputs": [],
      "stateMutability": "nonpayable",
      "type": "function"
    },
    {
      "inputs": [
        {
          "internalType": "address",
          "name": "newOwner",
          "type": "address"
        }
      ],
      "name": "transferOwnership",
      "outputs": [],
      "stateMutability": "nonpayable",
      "type": "function"
    },
    {
      "inputs": [
        {
          "internalType": "uint256",
          "name": "_endTime",
          "type": "uint256"
        },
        {
          "internalType": "string",
          "name": "_content",
          "type": "string"
        }
      ],
      "name": "createPost",
      "outputs": [],
      "stateMutability": "nonpayable",
      "type": "function"
    },
    {
      "inputs": [],
      "name": "getArray",
      "outputs": [
        {
          "internalType": "uint256[]",
          "name": "",
          "type": "uint256[]"
        }
      ],
      "stateMutability": "view",
      "type": "function"
    }
  ],
  "bytecode": "0x608060405260106001553480156200001657600080fd5b50620000223362000058565b62000052600b6040518060400160405280600581526020016462696e676f60d81b815250620000a860201b60201c565b62000385565b600080546001600160a01b038381166001600160a01b0319831681178455604051919092169283917f8be0079c531659141344cd1fd0a4f28419497f9722a3daafe3b4186f6b6457e09190a35050565b60026040518060400160405280620000c6846200018860201b60201c565b815260209081018490528254600181810185556000948552938290208351600290920201908155828201518051939491936200010b93928501929190910190620001d0565b505060025490506003620001238462015180620002cf565b6200012f9042620002b4565b8154600181018355600092835260208084209091019190915582825260048152604080832080546001600160a01b031916339081179091558352600590915281208054916200017e836200032e565b9190505550505050565b600080826040516020016200019e919062000276565b6040516020818303038152906040528051906020012060001c905060015481620001c991906200034c565b9392505050565b828054620001de90620002f1565b90600052602060002090601f0160209004810192826200020257600085556200024d565b82601f106200021d57805160ff19168380011785556200024d565b828001600101855582156200024d579182015b828111156200024d57825182559160200191906001019062000230565b506200025b9291506200025f565b5090565b5b808211156200025b576000815560010162000260565b6000825160005b818110156200029957602081860181015185830152016200027d565b81811115620002a9576000828501525b509190910192915050565b60008219821115620002ca57620002ca6200036f565b500190565b6000816000190483118215151615620002ec57620002ec6200036f565b500290565b600181811c908216806200030657607f821691505b602082108114156200032857634e487b7160e01b600052602260045260246000fd5b50919050565b60006000198214156200034557620003456200036f565b5060010190565b6000826200036a57634e487b7160e01b600052601260045260246000fd5b500690565b634e487b7160e01b600052601160045260246000fd5b61086d80620003956000396000f3fe608060405234801561001057600080fd5b506004361061007d5760003560e01c80638ecba3161161005b5780638ecba316146100d1578063a9ca3a4c146100f2578063d504ea1d14610105578063f2fde38b1461011a57600080fd5b80630b1e7f8314610082578063715018a6146100ac5780638da5cb5b146100b6575b600080fd5b610095610090366004610589565b61012d565b6040516100a39291906106f2565b60405180910390f35b6100b46101e5565b005b6000546040516001600160a01b0390911681526020016100a3565b6100e46100df366004610589565b610224565b6040519081526020016100a3565b6100b46101003660046105a2565b610245565b61010d610315565b6040516100a39190610679565b6100b4610128366004610560565b610398565b6002818154811061013d57600080fd5b6000918252602090912060029091020180546001820180549193509061016290610793565b80601f016020809104026020016040519081016040528092919081815260200182805461018e90610793565b80156101db5780601f106101b0576101008083540402835291602001916101db565b820191906000526020600020905b8154815290600101906020018083116101be57829003601f168201915b5050505050905082565b6000546001600160a01b031633146102185760405162461bcd60e51b815260040161020f906106bd565b60405180910390fd5b6102226000610433565b565b6003818154811061023457600080fd5b600091825260209091200154905081565b6002604051806040016040528061025b84610483565b8152602090810184905282546001818101855560009485529382902083516002909202019081558282015180519394919361029e939285019291909101906104c7565b5050600254905060036102b48462015180610744565b6102be904261072c565b8154600181018355600092835260208084209091019190915582825260048152604080832080546001600160a01b0319163390811790915583526005909152812080549161030b836107ce565b9190505550505050565b6000546060906001600160a01b031633146103425760405162461bcd60e51b815260040161020f906106bd565b600380548060200260200160405190810160405280929190818152602001828054801561038e57602002820191906000526020600020905b81548152602001906001019080831161037a575b5050505050905090565b6000546001600160a01b031633146103c25760405162461bcd60e51b815260040161020f906106bd565b6001600160a01b0381166104275760405162461bcd60e51b815260206004820152602660248201527f4f776e61626c653a206e6577206f776e657220697320746865207a65726f206160448201526564647265737360d01b606482015260840161020f565b61043081610433565b50565b600080546001600160a01b038381166001600160a01b0319831681178455604051919092169283917f8be0079c531659141344cd1fd0a4f28419497f9722a3daafe3b4186f6b6457e09190a35050565b60008082604051602001610497919061065d565b6040516020818303038152906040528051906020012060001c9050600154816104c091906107e9565b9392505050565b8280546104d390610793565b90600052602060002090601f0160209004810192826104f5576000855561053b565b82601f1061050e57805160ff191683800117855561053b565b8280016001018555821561053b579182015b8281111561053b578251825591602001919060010190610520565b5061054792915061054b565b5090565b5b80821115610547576000815560010161054c565b60006020828403121561057257600080fd5b81356001600160a01b03811681146104c057600080fd5b60006020828403121561059b57600080fd5b5035919050565b600080604083850312156105b557600080fd5b82359150602083013567ffffffffffffffff808211156105d457600080fd5b818501915085601f8301126105e857600080fd5b8135818111156105fa576105fa610821565b604051601f8201601f19908116603f0116810190838211818310171561062257610622610821565b8160405282815288602084870101111561063b57600080fd5b8260208601602083013760006020848301015280955050505050509250929050565b6000825161066f818460208701610763565b9190910192915050565b6020808252825182820181905260009190848201906040850190845b818110156106b157835183529284019291840191600101610695565b50909695505050505050565b6020808252818101527f4f776e61626c653a2063616c6c6572206973206e6f7420746865206f776e6572604082015260600190565b8281526040602082015260008251806040840152610717816060850160208701610763565b601f01601f1916919091016060019392505050565b6000821982111561073f5761073f61080b565b500190565b600081600019048311821515161561075e5761075e61080b565b500290565b60005b8381101561077e578181015183820152602001610766565b8381111561078d576000848401525b50505050565b600181811c908216806107a757607f821691505b602082108114156107c857634e487b7160e01b600052602260045260246000fd5b50919050565b60006000198214156107e2576107e261080b565b5060010190565b60008261080657634e487b7160e01b600052601260045260246000fd5b500690565b634e487b7160e01b600052601160045260246000fd5b634e487b7160e01b600052604160045260246000fdfea2646970667358221220fc47558ed0045f78e387cbe752bfe30195f61bdc66290d76ecd0163d44cd283764736f6c63430008060033",
  "immutableReferences": {},
  "source": "pragma solidity ^0.8.0;\n\nimport \"@openzeppelin/contracts/access/Ownable.sol\";\n\ncontract  PostBoard is Ownable{\n\n\n  uint randMod = 16;      // uuid length\n\n  struct Post{\n    uint uuid;\n    //    uint endTime;  // in days             epoch time\n    /* uint isDeprecated; */\n    string content;\n  }\n\n  Post[] public posts;\n  uint[] public postsEndTime;  // indexed by post id\n  mapping(uint => address) postToOwner;\n  mapping(address => uint) ownerPostCount;\n\n  constructor() {\n    createPost(11,\"bingo\");\n  }\n\n  function createPost(uint _endTime, string memory _content) public{\n\n  //  uint _postId = posts.push( Post( _generateUUID(_content), _content) ) - 1 ; // earlier push used to return length\n    posts.push( Post( _generateUUID(_content), _content) ) ; //\n\n    uint _postId = posts.length;\n    postsEndTime.push(uint(block.timestamp  + (_endTime*86400)));      // now is deprecated  so,block.timestamp is used\n    postToOwner[_postId] = msg.sender;\n    ownerPostCount[msg.sender]++;\n  }\n\n  function getArray() public view onlyOwner returns(uint[] memory){\n    return postsEndTime;\n  }\n\n  //_generateUUID returns randMod digits random num;\n  function _generateUUID(string memory _str) private view returns(uint){\n    uint rand = uint(keccak256(abi.encodePacked(_str)));\n    return  rand % randMod;\n  }\n\n  //deprecator   since delete is\n  function deprecateExpiredPost(uint _postId) private{\n    // automatic post deprecation\n    //\n  }\n\n  //time can only be extended further\n  //will create a new post with the same post id ?\n  /* // how?\n  function updateTime(uint _newEndTime, uint _postId){\n  require(posts[_postId].endTime > now);     // post cannot be update after end time\n\n  } */\n\n  modifier onlyOwnerOf(uint _postId){\n    require(msg.sender == postToOwner[_postId]);\n    _;\n  }\n\n  /* function setGreet(string memory _greet) public{\n  greet = _greet;\n}\n\nfunction getGreet() public view returns(string memory) {\nreturn greet;\n} */\n\n}\n",
  "sourcePath": "/home/waverune/devLab/deployed/eth-todo-list/contracts/PostBoard.sol",
  "compiler": {
    "name": "solc",
    "version": "0.8.6+commit.11564f7e.Emscripten.clang"
  },
  "schemaVersion": "3.4.1",
  "updatedAt": "2021-07-13T05:31:01.199Z",
  "devdoc": {
    "kind": "dev",
    "methods": {
      "owner()": {
        "details": "Returns the address of the current owner."
      },
      "renounceOwnership()": {
        "details": "Leaves the contract without owner. It will not be possible to call `onlyOwner` functions anymore. Can only be called by the current owner. NOTE: Renouncing ownership will leave the contract without an owner, thereby removing any functionality that is only available to the owner."
      },
      "transferOwnership(address)": {
        "details": "Transfers ownership of the contract to a new account (`newOwner`). Can only be called by the current owner."
      }
    },
    "version": 1
  },
  "userdoc": {
    "kind": "user",
    "methods": {},
    "version": 1
  }
}