{
  "contractName": "PostBoard",
  "abi": [
    {
      "inputs": [
        {
          "internalType": "string",
          "name": "_greet",
          "type": "string"
        }
      ],
      "stateMutability": "nonpayable",
      "type": "constructor"
    },
    {
      "anonymous": false,
      "inputs": [
        {
          "indexed": true,
          "internalType": "address",
          "name": "previousOwner",
          "type": "address"
        },
        {
          "indexed": true,
          "internalType": "address",
          "name": "newOwner",
          "type": "address"
        }
      ],
      "name": "OwnershipTransferred",
      "type": "event"
    },
    {
      "inputs": [],
      "name": "owner",
      "outputs": [
        {
          "internalType": "address",
          "name": "",
          "type": "address"
        }
      ],
      "stateMutability": "view",
      "type": "function"
    },
    {
      "inputs": [
        {
          "internalType": "uint256",
          "name": "",
          "type": "uint256"
        }
      ],
      "name": "posts",
      "outputs": [
        {
          "internalType": "uint256",
          "name": "uuid",
          "type": "uint256"
        },
        {
          "internalType": "string",
          "name": "content",
          "type": "string"
        }
      ],
      "stateMutability": "view",
      "type": "function"
    },
    {
      "inputs": [
        {
          "internalType": "uint256",
          "name": "",
          "type": "uint256"
        }
      ],
      "name": "postsEndTime",
      "outputs": [
        {
          "internalType": "uint256",
          "name": "",
          "type": "uint256"
        }
      ],
      "stateMutability": "view",
      "type": "function"
    },
    {
      "inputs": [],
      "name": "renounceOwnership",
      "outputs": [],
      "stateMutability": "nonpayable",
      "type": "function"
    },
    {
      "inputs": [
        {
          "internalType": "address",
          "name": "newOwner",
          "type": "address"
        }
      ],
      "name": "transferOwnership",
      "outputs": [],
      "stateMutability": "nonpayable",
      "type": "function"
    },
    {
      "inputs": [
        {
          "internalType": "uint256",
          "name": "_endTime",
          "type": "uint256"
        },
        {
          "internalType": "string",
          "name": "_content",
          "type": "string"
        }
      ],
      "name": "createPost",
      "outputs": [],
      "stateMutability": "nonpayable",
      "type": "function"
    },
    {
      "inputs": [],
      "name": "getEndTimeArray",
      "outputs": [
        {
          "internalType": "uint256[]",
          "name": "",
          "type": "uint256[]"
        }
      ],
      "stateMutability": "view",
      "type": "function"
    },
    {
      "inputs": [
        {
          "internalType": "string",
          "name": "_greet",
          "type": "string"
        }
      ],
      "name": "setGreet",
      "outputs": [],
      "stateMutability": "nonpayable",
      "type": "function"
    },
    {
      "inputs": [],
      "name": "getGreet",
      "outputs": [
        {
          "internalType": "string",
          "name": "",
          "type": "string"
        }
      ],
      "stateMutability": "view",
      "type": "function"
    }
  ],
  "bytecode": "0x608060405260106002553480156200001657600080fd5b5060405162000ea638038062000ea68339810160408190526200003991620002b5565b620000443362000097565b6200007a6103e76040518060400160405280600a815260200169496e697420506173746560b01b815250620000e760201b60201c565b80516200008f9060019060208401906200020f565b5050620004a5565b600080546001600160a01b038381166001600160a01b0319831681178455604051919092169283917f8be0079c531659141344cd1fd0a4f28419497f9722a3daafe3b4186f6b6457e09190a35050565b600360405180604001604052806200010584620001c760201b60201c565b815260209081018490528254600181810185556000948552938290208351600290920201908155828201518051939491936200014a939285019291909101906200020f565b505060035490506004620001628462015180620003a6565b6200016e90426200038b565b8154600181018355600092835260208084209091019190915582825260058152604080832080546001600160a01b03191633908117909155835260069091528120805491620001bd8362000438565b9190505550505050565b60008082604051602001620001dd91906200036d565b6040516020818303038152906040528051906020012060001c90506002548162000208919062000456565b9392505050565b8280546200021d90620003fb565b90600052602060002090601f0160209004810192826200024157600085556200028c565b82601f106200025c57805160ff19168380011785556200028c565b828001600101855582156200028c579182015b828111156200028c5782518255916020019190600101906200026f565b506200029a9291506200029e565b5090565b5b808211156200029a57600081556001016200029f565b600060208284031215620002c857600080fd5b81516001600160401b0380821115620002e057600080fd5b818401915084601f830112620002f557600080fd5b8151818111156200030a576200030a6200048f565b604051601f8201601f19908116603f011681019083821181831017156200033557620003356200048f565b816040528281528760208487010111156200034f57600080fd5b62000362836020830160208801620003c8565b979650505050505050565b6000825162000381818460208701620003c8565b9190910192915050565b60008219821115620003a157620003a162000479565b500190565b6000816000190483118215151615620003c357620003c362000479565b500290565b60005b83811015620003e5578181015183820152602001620003cb565b83811115620003f5576000848401525b50505050565b600181811c908216806200041057607f821691505b602082108114156200043257634e487b7160e01b600052602260045260246000fd5b50919050565b60006000198214156200044f576200044f62000479565b5060010190565b6000826200047457634e487b7160e01b600052601260045260246000fd5b500690565b634e487b7160e01b600052601160045260246000fd5b634e487b7160e01b600052604160045260246000fd5b6109f180620004b56000396000f3fe608060405234801561001057600080fd5b50600436106100935760003560e01c80639698086b116100665780639698086b14610108578063a9ca3a4c1461011b578063d705a4b51461012e578063e12b0d4d14610143578063f2fde38b1461015857600080fd5b80630b1e7f8314610098578063715018a6146100c25780638da5cb5b146100cc5780638ecba316146100e7575b600080fd5b6100ab6100a6366004610763565b61016b565b6040516100b9929190610897565b60405180910390f35b6100ca610223565b005b6000546040516001600160a01b0390911681526020016100b9565b6100fa6100f5366004610763565b610262565b6040519081526020016100b9565b6100ca610116366004610726565b610283565b6100ca61012936600461077c565b6102c4565b610136610394565b6040516100b9919061084f565b61014b610426565b6040516100b9919061080b565b6100ca6101663660046106fd565b6104a8565b6003818154811061017b57600080fd5b600091825260209091206002909102018054600182018054919350906101a090610917565b80601f01602080910402602001604051908101604052809291908181526020018280546101cc90610917565b80156102195780601f106101ee57610100808354040283529160200191610219565b820191906000526020600020905b8154815290600101906020018083116101fc57829003601f168201915b5050505050905082565b6000546001600160a01b031633146102565760405162461bcd60e51b815260040161024d90610862565b60405180910390fd5b6102606000610543565b565b6004818154811061027257600080fd5b600091825260209091200154905081565b6000546001600160a01b031633146102ad5760405162461bcd60e51b815260040161024d90610862565b80516102c09060019060208401906105d7565b5050565b600360405180604001604052806102da84610593565b8152602090810184905282546001818101855560009485529382902083516002909202019081558282015180519394919361031d939285019291909101906105d7565b50506003549050600461033384620151806108c8565b61033d90426108b0565b8154600181018355600092835260208084209091019190915582825260058152604080832080546001600160a01b0319163390811790915583526006909152812080549161038a83610952565b9190505550505050565b6060600180546103a390610917565b80601f01602080910402602001604051908101604052809291908181526020018280546103cf90610917565b801561041c5780601f106103f15761010080835404028352916020019161041c565b820191906000526020600020905b8154815290600101906020018083116103ff57829003601f168201915b5050505050905090565b6000546060906001600160a01b031633146104535760405162461bcd60e51b815260040161024d90610862565b600480548060200260200160405190810160405280929190818152602001828054801561041c57602002820191906000526020600020905b81548152602001906001019080831161048b575050505050905090565b6000546001600160a01b031633146104d25760405162461bcd60e51b815260040161024d90610862565b6001600160a01b0381166105375760405162461bcd60e51b815260206004820152602660248201527f4f776e61626c653a206e6577206f776e657220697320746865207a65726f206160448201526564647265737360d01b606482015260840161024d565b61054081610543565b50565b600080546001600160a01b038381166001600160a01b0319831681178455604051919092169283917f8be0079c531659141344cd1fd0a4f28419497f9722a3daafe3b4186f6b6457e09190a35050565b600080826040516020016105a791906107ef565b6040516020818303038152906040528051906020012060001c9050600254816105d0919061096d565b9392505050565b8280546105e390610917565b90600052602060002090601f016020900481019282610605576000855561064b565b82601f1061061e57805160ff191683800117855561064b565b8280016001018555821561064b579182015b8281111561064b578251825591602001919060010190610630565b5061065792915061065b565b5090565b5b80821115610657576000815560010161065c565b600082601f83011261068157600080fd5b813567ffffffffffffffff8082111561069c5761069c6109a5565b604051601f8301601f19908116603f011681019082821181831017156106c4576106c46109a5565b816040528381528660208588010111156106dd57600080fd5b836020870160208301376000602085830101528094505050505092915050565b60006020828403121561070f57600080fd5b81356001600160a01b03811681146105d057600080fd5b60006020828403121561073857600080fd5b813567ffffffffffffffff81111561074f57600080fd5b61075b84828501610670565b949350505050565b60006020828403121561077557600080fd5b5035919050565b6000806040838503121561078f57600080fd5b82359150602083013567ffffffffffffffff8111156107ad57600080fd5b6107b985828601610670565b9150509250929050565b600081518084526107db8160208601602086016108e7565b601f01601f19169290920160200192915050565b600082516108018184602087016108e7565b9190910192915050565b6020808252825182820181905260009190848201906040850190845b8181101561084357835183529284019291840191600101610827565b50909695505050505050565b6020815260006105d060208301846107c3565b6020808252818101527f4f776e61626c653a2063616c6c6572206973206e6f7420746865206f776e6572604082015260600190565b82815260406020820152600061075b60408301846107c3565b600082198211156108c3576108c361098f565b500190565b60008160001904831182151516156108e2576108e261098f565b500290565b60005b838110156109025781810151838201526020016108ea565b83811115610911576000848401525b50505050565b600181811c9082168061092b57607f821691505b6020821081141561094c57634e487b7160e01b600052602260045260246000fd5b50919050565b60006000198214156109665761096661098f565b5060010190565b60008261098a57634e487b7160e01b600052601260045260246000fd5b500690565b634e487b7160e01b600052601160045260246000fd5b634e487b7160e01b600052604160045260246000fdfea26469706673582212202695601333d5b2ace493da5ad3ef0e93ef6e8c812debcee4f6de84a0a273173c64736f6c63430008060033",
  "immutableReferences": {},
  "source": "pragma solidity ^0.8.0;\n\nimport \"@openzeppelin/contracts/access/Ownable.sol\";\n\ncontract  PostBoard is Ownable{\n  string greet ;\n  uint randMod = 16;      // uuid length\n\n\n  struct Post{\n    uint uuid;\n    string content;\n  }\n\n  Post[] public posts;\n  uint[] public postsEndTime;  // indexed by post id  //byte could be tried array ??\n  mapping(uint => address) postToOwner;\n  mapping(address => uint) ownerPostCount;\n\n  constructor(string memory _greet) {\n    createPost(999,\"Init Paste\");\n    greet = _greet;   // owners greet just checking getters and setters\n  }\n\n  /// methods\n  function createPost(uint _endTime, string memory _content) public{\n\n    //  uint _postId = posts.push( Post( _generateUUID(_content), _content) ) - 1 ; // earlier push used to return length\n    posts.push( Post( _generateUUID(_content), _content) ) ; //\n\n    uint _postId = posts.length;\n    postsEndTime.push(uint(block.timestamp  + (_endTime*86400)));      // now is deprecated  so,block.timestamp is used\n    postToOwner[_postId] = msg.sender;\n    ownerPostCount[msg.sender]++;\n  }\n/*\n  function editTitle(uint _postId, string memory _title) public {  // only endTime or title is editable\n    require(msg.sender == postToOwner[_postId])    ;  // check for original postToOwner\n    //reset _title\n    posts[_postId].title = _title;\n\n  }\n\n  function editEndtime(uint _postId, uint _endTime) public {  // only endTime or title is editable\n    require(msg.sender == postToOwner[_postId])    ;  // check for original postToOwner\n    // reset endTime\n    postsEndTime[_postId] = _endTime;\n  }\n */\n\n  // client side optimisation\n  function getEndTimeArray() public view onlyOwner returns(uint[] memory){\n    return postsEndTime;\n  }\n\n  //_generateUUID returns randMod digits random num;\n  function _generateUUID(string memory _str) private view returns(uint){\n    uint rand = uint(keccak256(abi.encodePacked(_str)));\n    return  rand % randMod;\n  }\n\n\n\n  function setGreet(string memory _greet) public onlyOwner{\n    greet = _greet;\n  }\n\n  function getGreet() public view returns(string memory) {\n    return greet;\n  }\n\n  //time can only be extended further\n  //will create a new post with the same post id ?\n  /* // how?\n  function updateTime(uint _newEndTime, uint _postId){\n  require(posts[_postId].endTime > now);     // post cannot be update after end time\n\n  } */\n\n}\n",
  "sourcePath": "/home/waverune/devLab/deployed/eth-todo-list/contracts/PostBoard.sol",
  "compiler": {
    "name": "solc",
    "version": "0.8.6+commit.11564f7e.Emscripten.clang"
  },
  "schemaVersion": "3.4.1",
  "updatedAt": "2021-07-20T18:15:25.037Z",
  "devdoc": {
    "kind": "dev",
    "methods": {
      "owner()": {
        "details": "Returns the address of the current owner."
      },
      "renounceOwnership()": {
        "details": "Leaves the contract without owner. It will not be possible to call `onlyOwner` functions anymore. Can only be called by the current owner. NOTE: Renouncing ownership will leave the contract without an owner, thereby removing any functionality that is only available to the owner."
      },
      "transferOwnership(address)": {
        "details": "Transfers ownership of the contract to a new account (`newOwner`). Can only be called by the current owner."
      }
    },
    "version": 1
  },
  "userdoc": {
    "kind": "user",
    "methods": {
      "createPost(uint256,string)": {
        "notice": "methods"
      }
    },
    "version": 1
  }
}